:100000000C94F1000C940E010C940E010C940E0152
:100010000C940E010C940E010C940E010C940E0124
:100020000C940E010C940E010C94A3060C94DE06A5
:100030000C940E010C940E010C940E010C940E0104
:100040000C940E010C940E010C940E010C940E01F4
:100050000C940E010C940E010C940E010C940E01E4
:100060000C940E010C940E010C940E010C940E01D4
:100070000C940E010C940E010C940E010C940E01C4
:100080000C940E010C940E010C940E010C940E01B4
:100090000C940E010C940E010C940E010C940E01A4
:1000A0000C940E010C940E010C940E0140063D06BA
:1000B0003A063706340631062E062B062806250694
:1000C00022061F061C0619061606130610060D0644
:1000D0000A06070604060106FE05FB05F805F505F8
:1000E000F205EF05EC05E905E605E305E005DD05AC
:1000F000DA05D705D405D105CE05CB05C805C5055C
:10010000C205BF05BC05B905B605B305B005AD050B
:10011000AA05A705A405A1059E059B0598059505BB
:1001200092058F058C0589058605830580050001EC
:10013000000062011200020000740143000300008D
:10014000B7010401030904BB011202030904CF0132
:100150000603030904D701080001C112018036011A
:1001600081361201000202000010C0167A0400015C
:100170000102030109024300020100C03209040028
:100180000001020201000524001001052401010103
:10019000042402060524060001070582031000401E
:1001A00009040100020A00000007050302400000E4
:1001B000070584024000000403090412034A002ECC
:1001C0000020004600690065006E00650000000622
:1001D000034D0032000000080334003100300000FD
:1001E000000011241FBECFEFDAE0DEBFCDBF11E06B
:1001F000A0E0B1E0E4EDF7E102C005900D92A83077
:10020000B107D9F711E0A8E0B1E001C01D92A43117
:10021000B107E1F70E9406030C94E80B0C94000070
:10022000809888988198899884988C9885988D98DA
:10023000279A2F9A3E9A469A0895A1E8B0E08C91A9
:1002400084608C938C918D7F8C938C9181608C9346
:100250008C9188608C93E0E8F0E0808181608083FD
:100260008C9180618C9380818260808380818860A2
:100270008083808184608083E1E9F0E08081846014
:10028000808380818D7F8083808181608083808175
:1002900080618083808188608083E0E9F0E08081F4
:1002A0008260808380818E7F80838081806880836C
:1002B0008081806480830895ECE7F0E080818F770F
:1002C0008083808180648083EAE7F0E080818460BD
:1002D000808380818D7F808380818E7F8083EEE725
:1002E000F0E0808181608083808182608083808172
:1002F0008061808380818062808308958CE990E0B2
:100300009093890080938800909397008093960043
:10031000089581309105A9F0823091051CF4892B54
:1003200039F03FC084309105A9F00597D1F525C07B
:1003300080917B008F7D80937B0080917C008B7F00
:1003400011C080917B008F7D80937B0080917C0029
:100350008B7F1BC080917B008F7D80937B00809181
:100360007C00846080937C0080917C008D7F8093F2
:100370007C0080917C008E7F12C080917B008F7DFD
:1003800080937B0080917C00846080937C008091CE
:100390007C008D7F80937C0080917C0081608093C5
:1003A0007C0080917A00806880937A000895809123
:1003B0007A00806480937A0080917A0084FFFCCF79
:1003C000209178003091790080917A00806180934B
:1003D0007A0080917A008F7B80937A00C90108951A
:1003E000EF92FF920F931F937B018C0120E030E08E
:1003F00040E050E00E94AB0A18162CF4259A2D9A82
:1004000026982E980EC0C801B70120E030E040E0E9
:1004100050E00E94C409882324F4269A2E9A259835
:100420002D981F910F91FF90EF900895EF92FF92FA
:100430000F931F937B018C0120E030E040E050E0FF
:100440000E94AB0A18162CF4519A599A52985E9849
:100450000EC0C801B70120E030E040E050E00E944B
:10046000C409882324F4529A5A9A519859981F9192
:100470000F91FF90EF9008956F927F928F929F92CD
:10048000AF92BF92CF92DF92EF92FF920F931F93A2
:100490007C01A0900801B0900901A80EB91EB0928D
:1004A0000901A092080180910E0190910F01B701FE
:1004B000681B790B882777FD8095982F0E94FB0990
:1004C00020E030E040E050E00E94AF0A3B014C01E8
:1004D000F0920F01E0920E010027F7FC0095102F1B
:1004E000C801B7010E94FB0920E030E040EA50E477
:1004F0000E94AF0A7B018C01CC24B7FCC094DC2C99
:10050000C601B5010E94FB0920E030E040E050E068
:100510000E94AF0A9B01AC01C801B7010E946009AB
:10052000A40193010E9460091F910F91FF90EF9029
:10053000DF90CF90BF90AF909F908F907F906F9003
:1005400008956F927F928F929F92AF92BF92CF92B7
:10055000DF92EF92FF920F931F937C0180910A012B
:1005600090910B018E0D9F1D90930B0180930A01BA
:100570006091080170910901882777FD8095982F77
:100580000E94FB092AE037ED43E25CE30E94AF0AD8
:100590003B014C0180910C0190910D01B701681B4A
:1005A000790B882777FD8095982F0E94FB0920E022
:1005B00030E040E050E00E94AF0A5B016C01F09235
:1005C0000D01E0920C010027F7FC0095102FC801E7
:1005D000B7010E94FB0920E030E040EA50E40E94AD
:1005E000AF0AA40193010E946009A60195010E942F
:1005F00060091F910F91FF90EF90DF90CF90BF9017
:10060000AF909F908F907F906F9008952F923F9220
:100610004F925F926F927F928F929F92AF92BF9212
:10062000CF92DF92EF92FF920F931F93DF93CF93BE
:1006300000D000D0CDB7DEB70E94780480E8809368
:10064000610010926100569A5E980E9410010E940B
:100650001D010E945C018CE990E0909389008093D9
:100660008800909397008093960080E090E00E942D
:1006700089010E94D7017C0181E090E00E948901FC
:100680000E94D701E81AF90A0027F7FC0095102FFD
:10069000C801B701CDC0569A5E9A2B813C812536A0
:1006A00031050CF44BC0C601B5010E94F0018E2D3E
:1006B000912F0E943C021B012C01E89457F8C201C3
:1006C000B10120E030EC4FE754E40E94AB0A181669
:1006D00054F40F2EF0E02F2EF0EC3F2EFFE74F2EBC
:1006E000F4E45F2EF02DC201B1012EEA3EE040E8B5
:1006F0005AE30E94AF0A5B016C012DEC3CEC4CEC20
:100700005DE30E94AB0A1816CCF4609188007091EA
:10071000890080E090E00E94F9097B018C0160E093
:1007200070E080E89FE3A60195010E945F099B01AC
:10073000AC01C801B7010E94AF0A08C060918800EF
:100740007091890080E090E00E94F9090E94CD0933
:1007500070938D0060938C0080E090E00E9489018E
:100760000E94D7019C838B8381E090E00E948901E5
:100770000E94D7019A838983C401B3010E94C809EA
:10078000E62ED72ECB0177FF03C0909581959F4F22
:10079000853691059CF1C401B3010E9416028E2D8D
:1007A0009D2D0E94A102C201B1012EEA3EE040E867
:1007B0005AE30E94AF0A5B016C012DEC3CEC4CEC5F
:1007C0005DE30E94AB0A1816CCF46091960070911C
:1007D000970080E090E00E94F9097B018C0160E0C5
:1007E00070E080E89FE3A60195010E945F099B01EC
:1007F000AC01C801B7010E94AF0A08C06091960021
:100800007091970080E090E00E94F9090E94CD0964
:1008100070939900609398008B819C81E981FA81A3
:100820008E1B9F0B9C01B901882777FD8095982F1F
:100830000E94FB095B016C0184E090E00E94890149
:100840000E94D7017C0185E090E00E9489010E940E
:10085000D701E81AF90A0027F7FC0095102FC80104
:10086000B7010E94FB093B014C01C601B5010E9482
:10087000C809E62E172FCB017C836B8377FF05C059
:10088000909581959F4F9C838B838B819C8185362E
:1008900091050CF000CFC401B3010E94C809CB013F
:1008A00077FF03C0909581959F4F853691050CF099
:1008B000F2CE569A5E98609188007091890080E02F
:1008C00090E00E94F9090E94CD0970938D00609319
:1008D0008C00609196007091970080E090E00E94FB
:1008E000F9090E94CD097093990060939800BDCEDC
:1008F00081E08093D70080EA8093D80082E189BDAF
:1009000009B400FEFDCF80E98093D8001092E0008A
:1009100010921001109211018CE08093E200789403
:1009200008958091100108959FB7F8948091100167
:10093000882339F083E08093E9008091E80085FD09
:1009400003C09FBF8FEF08952091F1008091E800D0
:1009500085FD03C08BE68093E8009FBF822F08953A
:100960009FB7F89480911001882329F083E0809349
:10097000E9008091F2009FBF0895809110018823C3
:1009800071F09FB7F89483E08093E9002BE602C0F2
:100990002093E8008091E80085FDFACF9FBF08957D
:1009A000482F809110018823D9F12FB7F89484E063
:1009B0008093E90080911301882341F08091E80041
:1009C00085FD02C02FBF12C0109213019091E40068
:1009D000975E34E08091E80085FD13C02FBF8091C1
:1009E000E400891729F481E0809313018FEF0895C3
:1009F000809110018823A1F02FB7F8943093E9007B
:100A0000E9CF4093F1008091E80085FD03C08AE3BF
:100A10008093E80085E0809312012FBF80E0089565
:100A20008FEF0895282F80911001882351F09FB7F0
:100A3000F89484E08093E9008091E80085FD03C08C
:100A40009FBF8FEF08952093F1008091E80085FD0E
:100A500003C08AE38093E80085E0809312019FBF82
:100A600080E00895CF93DF93EC01809110018823FB
:100A700009F41CC13FB7F89484E08093E9008091A9
:100A80001301882309F407C18091E80085FD02C0A5
:100A90003FBF0CC110921301FEC09091E400975E1D
:100AA0008091E80085FD13C03FBF8091E400891765
:100AB00021F481E080931301F9C080911001882313
:100AC00009F4F4C03FB7F8945093E900E9CF80915E
:100AD000F2002A2F281B822F90E06817790708F46C
:100AE000262F822F90E08134910508F0C6C08A5AE3
:100AF0009F4FFC01EE0FFF1F0590F491E02D09942C
:100B000089918093F10089918093F100899180937C
:100B1000F10089918093F10089918093F10089918E
:100B20008093F10089918093F10089918093F10085
:100B300089918093F10089918093F100899180934C
:100B4000F10089918093F10089918093F10089915E
:100B50008093F10089918093F10089918093F10055
:100B600089918093F10089918093F100899180931C
:100B7000F10089918093F10089918093F10089912E
:100B80008093F10089918093F10089918093F10025
:100B900089918093F10089918093F10089918093EC
:100BA000F10089918093F10089918093F1008991FE
:100BB0008093F10089918093F10089918093F100F5
:100BC00089918093F10089918093F10089918093BC
:100BD000F10089918093F10089918093F1008991CE
:100BE0008093F10089918093F10089918093F100C5
:100BF00089918093F10089918093F100899180938C
:100C0000F10089918093F10089918093F10089919D
:100C10008093F10089918093F10089918093F10094
:100C200089918093F10089918093F100899180935B
:100C3000F10089918093F10089918093F10089916D
:100C40008093F10089918093F10089918093F10064
:100C500089918093F10089918093F100899180932B
:100C6000F10089918093F10089918093F10089913D
:100C70008093F10089918093F10089918093F10034
:100C80008091E80085FD02C0B093E800621B710905
:100C90004093120104C054E0A0E4BAE345E06115BA
:100CA000710509F0FACE3FBF80E001C08FEFDF9100
:100CB000CF9108959FB7F89480911201882341F055
:100CC00084E08093E9008AE38093E80010921201A7
:100CD0009FBF0895809104010895809105010895B2
:100CE000809106010895809111010895382F9FB7D2
:100CF000F89480911001882339F022E02093E900D4
:100D00008091E80085FD03C09FBF8FEF089581EAC1
:100D10008093F10080E28093F1001092F100109234
:100D2000F1001092F1001092F1002093F100109266
:100D3000F1003093F1001092F1008AE38093E80013
:100D40009FBF80E008951F920F920FB60F9211245B
:100D50008F939F938091E1001092E100982F83FF81
:100D600011C01092E90081E08093EB001092EC003A
:100D700082E18093ED0088E08093F00010921001F2
:100D80001092110192FF13C080911001882379F015
:100D900080911201882359F0815080931201882399
:100DA00031F484E08093E9008AE38093E8009F9126
:100DB0008F910F900FBE0F901F9018951F920F925A
:100DC0000FB60F9211240F931F932F933F934F93BE
:100DD0005F936F937F938F939F93AF93BF93EF93A3
:100DE000FF931092E9008091E80083FF3CC140919D
:100DF000F1003091F1008091F100682F70E02091B6
:100E0000F100922F80E0682B792B8091F100A82FC0
:100E1000B0E02091F100922F80E0A82BB92B109127
:100E2000F1000091F10082EF8093E800363009F084
:100E30005AC025E331E0A90145505040F9013797E8
:100E4000859194918617970701F5FA018591949100
:100E50008A179B07D1F49A012E5F3F4FF9016591E4
:100E600074912E5F3F4FF9014491212F30E0902F74
:100E700080E0282B392B2F3F310519F010F02FEF90
:100E800030E0241758F4422F09C0295F3F4F495FD3
:100E90005F4FF1E02F353F0789F6E5C05EEF8091A7
:100EA000E800282F30E0C90185709070892BB9F3D4
:100EB00022FDDCC0342F413108F030E1232FCB017B
:100EC00006C0FC010196E491E093F1002150222339
:100ED000C1F7630F711D431B5093E8004423F9F6DB
:100EE0003031E9F2C3C0353061F48EEF8093E80011
:100EF0008091E80080FFFCCF862F80688093E3001C
:100F0000B5C0393051F5442309F0ADC060931001EC
:100F100010921101109212018EEF8093E80088E583
:100F200091E021E02093E900FC010196E491E09337
:100F3000EB00EE2369F0AC014F5F5F4FFC01849141
:100F40008093EC00CA010196FA0134913093ED00D0
:100F50002F5F253039F78EE181C0383061F4403899
:100F600009F081C08091E80080FFFCCF80911001E2
:100F70008093F10050C0313289F4413A09F073C0D6
:100F80008091E80080FFFCCFE0E0F1E08191809368
:100F9000F10081E0E730F807C9F73DC03032A1F435
:100FA000413209F060C08091E80082FFFCCFE0E0B0
:100FB000F1E08091F100819381E0E730F807C9F713
:100FC0008BEF8093E80027C0323251F4413209F0B0
:100FD0004AC0609311018091E80080FFFCCF1BC0E4
:100FE0003323E9F48091E80080FFFCCF423811F010
:100FF00080E00DC0A093E9008091EB0090E025E037
:10100000969587952A95E1F781701092E900809373
:10101000F1001092F1008EEF8093E80027C031308C
:1010200011F0333001F54230F1F4672BE1F42A2F4F
:101030002F77822F81508430B0F48EEF8093E800B8
:101040002093E900333079F089E18093EB0081E06F
:1010500090E002C0880F991F2A95E2F78093EA007A
:101060001092EA0003C081E28093EB00FF91EF91C0
:10107000BF91AF919F918F917F916F915F914F91B0
:101080003F912F911F910F910F900FBE0F901F90C6
:1010900018951F93CF93DF93EC01FE0121961491D5
:1010A000112349F01A3019F48DE00E94D004812FE9
:1010B0000E94D004F2CFDF91CF911F910895982F15
:1010C0008A3010F087E301C080E3890F0E94D004CA
:1010D00008951F93182F82958F700E945F08812FAB
:1010E0008F700E945F081F9108951F93182F892FFA
:1010F0000E946908812F0E9469081F9108950E942B
:1011000069080895EF92FF920F931F93DF93CF9397
:10111000CDB7DEB72B970FB6F894DEBF0FBECDBFAD
:101120008E010F5F1F4F2BE0F80111922A95E9F70E
:10113000A8012AE030E00E94670B3BE0E32EF12C8F
:10114000EC0EFD1EF8018081882311F00E94D0046E
:101150000F5F1F4F0E151F05A9F72B960FB6F894BA
:10116000DEBF0FBECDBFCF91DF911F910F91FF90DA
:10117000EF900895EF92FF920F931F93DF93CF9319
:10118000CDB7DEB72B970FB6F894DEBF0FBECDBF3D
:101190008E010F5F1F4F2BE0F80111922A95E9F79E
:1011A000A8012AE030E00E94330B4CE0E42EF12C41
:1011B000EC0EFD1EF8018081882311F00E94D004FE
:1011C0000F5F1F4F0E151F05A9F72B960FB6F8944A
:1011D000DEBF0FBECDBFCF91DF911F910F91FF906A
:1011E000EF900895EF92FF920F931F93DF93CF93A9
:1011F00000D000D000D0CDB7DEB78E010F5F1F4FFB
:1012000026E0F80111922A95E9F7B8014AE050E08A
:101210000E948C0B56E0E52EF12CEC0EFD1EF80121
:101220008081882311F00E94D0040F5F1F4F0E159C
:101230001F05A9F726960FB6F894DEBF0FBECDBFE7
:10124000CF91DF911F910F91FF90EF900895EF9252
:10125000FF920F931F93DF93CF93CDB7DEB72797FE
:101260000FB6F894DEBF0FBECDBF8E010F5F1F4FCC
:1012700027E0F80111922A95E9F7B8014AE050E019
:101280000E94120B68E0E62EF12CEC0EFD1EF80118
:101290008081882311F00E94D0040F5F1F4F0E152C
:1012A0001F05A9F727960FB6F894DEBF0FBECDBF76
:1012B000CF91DF911F910F91FF90EF9008955058BB
:1012C000BB27AA270ED00DC1FED030F003D120F0ED
:1012D00031F49F3F11F41EF4F3C00EF4E095E7FBE8
:1012E000E9C0E92F0FD180F3BA17620773078407AB
:1012F000950718F071F49EF527C10EF4E0950B2EBA
:10130000BA2FA02D0B01B90190010C01CA01A00157
:101310001124FF27591B99F0593F50F4503E68F1B2
:101320001A16F040A22F232F342F4427585FF3CFF3
:10133000469537952795A795F0405395C9F77EF4C4
:101340001F16BA0B620B730B840BBAF09150A1F00D
:10135000FF0FBB1F661F771F881FC2F70EC0BA0F93
:10136000621F731F841F48F4879577956795B7951B
:10137000F7959E3F08F0B3CF9395880F08F0992713
:10138000EE0F97958795089571D008F481E0089540
:1013900004D06894B111D9C00895BCD088F09F578B
:1013A00090F0B92F9927B751A0F0D1F0660F771FB1
:1013B000881F991F1AF0BA95C9F712C0B13081F091
:1013C000C3D0B1E00895C0C0672F782F8827B85FD9
:1013D00039F0B93FCCF3869577956795B395D9F7F2
:1013E0003EF490958095709561957F4F8F4F9F4FFC
:1013F0000895E89409C097FB3EF490958095709508
:1014000061957F4F8F4F9F4F9923A9F0F92F96E950
:10141000BB279395F695879577956795B795F111C5
:10142000F8CFFAF4BB0F11F460FF1BC06F5F7F4F62
:101430008F4F9F4F16C0882311F096E911C0772374
:1014400021F09EE8872F762F05C0662371F096E87D
:10145000862F70E060E02AF09A95660F771F881F4C
:10146000DAF7880F9695879597F90895990F0008F0
:10147000550FAA0BE0E8FEEF16161706E807F90766
:10148000C0F012161306E407F50798F0621B730B01
:10149000840B950B39F40A2661F0232B242B252B82
:1014A00021F408950A2609F4A140A6958FEF811D25
:1014B000811D089597F99F6780E870E060E00895C6
:1014C0009FEF80EC089500240A941616170618065C
:1014D0000906089500240A94121613061406050638
:1014E0000895092E0394000C11F4882352F0BB0FC9
:1014F00040F4BF2B11F460FF04C06F5F7F4F8F4F2C
:101500009F4F089557FD9058440F551F59F05F3F66
:1015100071F04795880F97FB991F61F09F3F79F015
:1015200087950895121613061406551FF2CF469597
:10153000F1DF08C0161617061806991FF1CF869519
:101540007105610508940895E894BB2766277727FD
:10155000CB0197F908958ADF08F48FEF08950BD037
:10156000C0CFB1DF28F0B6DF18F0952309F0A2CF85
:10157000A7CF1124EACFC6DFA0F3959FD1F3950F33
:1015800050E0551F629FF001729FBB27F00DB11D07
:10159000639FAA27F00DB11DAA1F649F6627B00D97
:1015A000A11D661F829F2227B00DA11D621F739F80
:1015B000B00DA11D621F839FA00D611D221F749F8E
:1015C0003327A00D611D231F849F600D211D822FD5
:1015D000762F6A2F11249F5750408AF0E1F088231C
:1015E0004AF0EE0FFF1FBB1F661F771F881F915029
:1015F0005040A9F79E3F510570F05CCFA6CF5F3FEA
:10160000ECF3983EDCF3869577956795B795F7955B
:10161000E7959F5FC1F7FE2B880F911D96958795E3
:1016200097F90895FB019F01E8944230C4F04532D8
:10163000B4F44A3029F497FB1EF4909581959F4F9E
:10164000642F77270E94B20B805D8A330CF0895D8E
:101650008193CB010097A1F716F45DE251931082BC
:10166000C9010C94A20BFA01CF93FF93EF932230A0
:1016700044F1253234F5C22FE894CA3049F497FB7F
:101680003EF490958095709561957F4F8F4F9F4F59
:101690002C2F332744275527FF93EF930E94C60B27
:1016A000EF91FF91605D6A330CF0695D6193B90160
:1016B000CA01605070408040904051F716F4CDE26E
:1016C000C19310828F919F91CF910C94A20BFA013C
:1016D000CF93FF93EF932230CCF02532BCF4C22F8E
:1016E0002C2F332744275527FF93EF930E94C60BD7
:1016F000EF91FF91605D6A330CF0695D6193B90110
:10170000CA01605070408040904051F710828F9124
:101710009F91CF910C94A20BFB019F01423074F07A
:10172000453264F4642F77270E94B20B805D8A33C0
:101730000CF0895D8193CB010097A1F71082C9015C
:101740000C94A20BDC01FC01672F71917723E1F768
:10175000329704C07C916D9370836291AE17BF077E
:10176000C8F30895AA1BBB1B51E107C0AA1FBB1FEA
:10177000A617B70710F0A61BB70B881F991F5A951D
:10178000A9F780959095BC01CD010895A1E21A2E8C
:10179000AA1BBB1BFD010DC0AA1FBB1FEE1FFF1F15
:1017A000A217B307E407F50720F0A21BB30BE40B65
:1017B000F50B661F771F881F991F1A9469F76095AC
:1017C0007095809590959B01AC01BD01CF01089566
:0417D000F894FFCFBB
:0817D40000E100000000080024
:00000001FF
